{
  "_format": "hh-sol-artifact-1",
  "contractName": "DResumeSBT",
  "sourceName": "contracts/DResumeSBT.sol",
  "abi": [
    {
      "inputs": [],
      "stateMutability": "nonpayable",
      "type": "constructor"
    },
    {
      "anonymous": false,
      "inputs": [
        {
          "indexed": true,
          "internalType": "uint256",
          "name": "tokenId",
          "type": "uint256"
        },
        {
          "indexed": true,
          "internalType": "address",
          "name": "owner",
          "type": "address"
        },
        {
          "indexed": false,
          "internalType": "string",
          "name": "metadataHash",
          "type": "string"
        },
        {
          "indexed": false,
          "internalType": "uint256",
          "name": "verificationScore",
          "type": "uint256"
        },
        {
          "indexed": false,
          "internalType": "uint256",
          "name": "timestamp",
          "type": "uint256"
        }
      ],
      "name": "CredentialMinted",
      "type": "event"
    },
    {
      "anonymous": false,
      "inputs": [
        {
          "indexed": true,
          "internalType": "uint256",
          "name": "tokenId",
          "type": "uint256"
        },
        {
          "indexed": false,
          "internalType": "string",
          "name": "newMetadataHash",
          "type": "string"
        },
        {
          "indexed": false,
          "internalType": "uint256",
          "name": "newScore",
          "type": "uint256"
        },
        {
          "indexed": false,
          "internalType": "uint256",
          "name": "timestamp",
          "type": "uint256"
        }
      ],
      "name": "CredentialUpdated",
      "type": "event"
    },
    {
      "anonymous": false,
      "inputs": [
        {
          "indexed": true,
          "internalType": "uint256",
          "name": "credentialId",
          "type": "uint256"
        },
        {
          "indexed": true,
          "internalType": "address",
          "name": "endorser",
          "type": "address"
        },
        {
          "indexed": false,
          "internalType": "string",
          "name": "message",
          "type": "string"
        },
        {
          "indexed": false,
          "internalType": "uint256",
          "name": "timestamp",
          "type": "uint256"
        }
      ],
      "name": "EndorsementAdded",
      "type": "event"
    },
    {
      "anonymous": false,
      "inputs": [
        {
          "indexed": true,
          "internalType": "address",
          "name": "issuer",
          "type": "address"
        },
        {
          "indexed": false,
          "internalType": "bool",
          "name": "status",
          "type": "bool"
        }
      ],
      "name": "IssuerVerified",
      "type": "event"
    },
    {
      "inputs": [
        {
          "internalType": "uint256",
          "name": "_credentialId",
          "type": "uint256"
        },
        {
          "internalType": "string",
          "name": "_message",
          "type": "string"
        }
      ],
      "name": "addEndorsement",
      "outputs": [],
      "stateMutability": "nonpayable",
      "type": "function"
    },
    {
      "inputs": [
        {
          "internalType": "uint256",
          "name": "",
          "type": "uint256"
        },
        {
          "internalType": "uint256",
          "name": "",
          "type": "uint256"
        }
      ],
      "name": "credentialEndorsements",
      "outputs": [
        {
          "internalType": "address",
          "name": "endorser",
          "type": "address"
        },
        {
          "internalType": "uint256",
          "name": "credentialId",
          "type": "uint256"
        },
        {
          "internalType": "string",
          "name": "message",
          "type": "string"
        },
        {
          "internalType": "uint256",
          "name": "timestamp",
          "type": "uint256"
        }
      ],
      "stateMutability": "view",
      "type": "function"
    },
    {
      "inputs": [
        {
          "internalType": "uint256",
          "name": "",
          "type": "uint256"
        }
      ],
      "name": "credentials",
      "outputs": [
        {
          "internalType": "address",
          "name": "owner",
          "type": "address"
        },
        {
          "internalType": "string",
          "name": "metadataHash",
          "type": "string"
        },
        {
          "internalType": "uint256",
          "name": "verificationScore",
          "type": "uint256"
        },
        {
          "internalType": "uint256",
          "name": "timestamp",
          "type": "uint256"
        },
        {
          "internalType": "address",
          "name": "issuer",
          "type": "address"
        },
        {
          "internalType": "bool",
          "name": "isActive",
          "type": "bool"
        }
      ],
      "stateMutability": "view",
      "type": "function"
    },
    {
      "inputs": [
        {
          "internalType": "uint256",
          "name": "_tokenId",
          "type": "uint256"
        }
      ],
      "name": "getCredential",
      "outputs": [
        {
          "internalType": "address",
          "name": "credOwner",
          "type": "address"
        },
        {
          "internalType": "string",
          "name": "metadataHash",
          "type": "string"
        },
        {
          "internalType": "uint256",
          "name": "verificationScore",
          "type": "uint256"
        },
        {
          "internalType": "string[]",
          "name": "skillTags",
          "type": "string[]"
        },
        {
          "internalType": "uint256",
          "name": "timestamp",
          "type": "uint256"
        },
        {
          "internalType": "address",
          "name": "issuer",
          "type": "address"
        },
        {
          "internalType": "bool",
          "name": "isActive",
          "type": "bool"
        }
      ],
      "stateMutability": "view",
      "type": "function"
    },
    {
      "inputs": [
        {
          "internalType": "uint256",
          "name": "_credentialId",
          "type": "uint256"
        }
      ],
      "name": "getEndorsements",
      "outputs": [
        {
          "components": [
            {
              "internalType": "address",
              "name": "endorser",
              "type": "address"
            },
            {
              "internalType": "uint256",
              "name": "credentialId",
              "type": "uint256"
            },
            {
              "internalType": "string",
              "name": "message",
              "type": "string"
            },
            {
              "internalType": "uint256",
              "name": "timestamp",
              "type": "uint256"
            }
          ],
          "internalType": "struct DResumeSBT.Endorsement[]",
          "name": "",
          "type": "tuple[]"
        }
      ],
      "stateMutability": "view",
      "type": "function"
    },
    {
      "inputs": [],
      "name": "getTotalCredentials",
      "outputs": [
        {
          "internalType": "uint256",
          "name": "",
          "type": "uint256"
        }
      ],
      "stateMutability": "view",
      "type": "function"
    },
    {
      "inputs": [
        {
          "internalType": "address",
          "name": "_user",
          "type": "address"
        }
      ],
      "name": "getUserCredentials",
      "outputs": [
        {
          "internalType": "uint256[]",
          "name": "",
          "type": "uint256[]"
        }
      ],
      "stateMutability": "view",
      "type": "function"
    },
    {
      "inputs": [
        {
          "internalType": "string",
          "name": "_metadataHash",
          "type": "string"
        },
        {
          "internalType": "uint256",
          "name": "_verificationScore",
          "type": "uint256"
        },
        {
          "internalType": "string[]",
          "name": "_skillTags",
          "type": "string[]"
        }
      ],
      "name": "mintCredential",
      "outputs": [
        {
          "internalType": "uint256",
          "name": "",
          "type": "uint256"
        }
      ],
      "stateMutability": "nonpayable",
      "type": "function"
    },
    {
      "inputs": [
        {
          "internalType": "address",
          "name": "_user",
          "type": "address"
        },
        {
          "internalType": "string",
          "name": "_metadataHash",
          "type": "string"
        },
        {
          "internalType": "uint256",
          "name": "_verificationScore",
          "type": "uint256"
        },
        {
          "internalType": "string[]",
          "name": "_skillTags",
          "type": "string[]"
        }
      ],
      "name": "mintCredentialForUser",
      "outputs": [
        {
          "internalType": "uint256",
          "name": "",
          "type": "uint256"
        }
      ],
      "stateMutability": "nonpayable",
      "type": "function"
    },
    {
      "inputs": [],
      "name": "owner",
      "outputs": [
        {
          "internalType": "address",
          "name": "",
          "type": "address"
        }
      ],
      "stateMutability": "view",
      "type": "function"
    },
    {
      "inputs": [
        {
          "internalType": "uint256",
          "name": "_tokenId",
          "type": "uint256"
        }
      ],
      "name": "revokeCredential",
      "outputs": [],
      "stateMutability": "nonpayable",
      "type": "function"
    },
    {
      "inputs": [
        {
          "internalType": "address",
          "name": "_issuer",
          "type": "address"
        },
        {
          "internalType": "bool",
          "name": "_status",
          "type": "bool"
        }
      ],
      "name": "setVerifiedIssuer",
      "outputs": [],
      "stateMutability": "nonpayable",
      "type": "function"
    },
    {
      "inputs": [
        {
          "internalType": "uint256",
          "name": "_tokenId",
          "type": "uint256"
        },
        {
          "internalType": "string",
          "name": "_newMetadataHash",
          "type": "string"
        },
        {
          "internalType": "uint256",
          "name": "_newScore",
          "type": "uint256"
        },
        {
          "internalType": "string[]",
          "name": "_newSkillTags",
          "type": "string[]"
        }
      ],
      "name": "updateCredential",
      "outputs": [],
      "stateMutability": "nonpayable",
      "type": "function"
    },
    {
      "inputs": [
        {
          "internalType": "address",
          "name": "",
          "type": "address"
        },
        {
          "internalType": "uint256",
          "name": "",
          "type": "uint256"
        }
      ],
      "name": "userCredentials",
      "outputs": [
        {
          "internalType": "uint256",
          "name": "",
          "type": "uint256"
        }
      ],
      "stateMutability": "view",
      "type": "function"
    },
    {
      "inputs": [
        {
          "internalType": "address",
          "name": "",
          "type": "address"
        }
      ],
      "name": "verifiedIssuers",
      "outputs": [
        {
          "internalType": "bool",
          "name": "",
          "type": "bool"
        }
      ],
      "stateMutability": "view",
      "type": "function"
    },
    {
      "inputs": [
        {
          "internalType": "uint256",
          "name": "_tokenId",
          "type": "uint256"
        }
      ],
      "name": "verifyCredential",
      "outputs": [
        {
          "internalType": "bool",
          "name": "exists",
          "type": "bool"
        },
        {
          "internalType": "bool",
          "name": "isActive",
          "type": "bool"
        },
        {
          "internalType": "address",
          "name": "credOwner",
          "type": "address"
        },
        {
          "internalType": "uint256",
          "name": "score",
          "type": "uint256"
        },
        {
          "internalType": "uint256",
          "name": "timestamp",
          "type": "uint256"
        }
      ],
      "stateMutability": "view",
      "type": "function"
    }
  ],
  "bytecode": "0x608060405234801561001057600080fd5b50600180546001600160a01b0319163390811782556000908152600560205260409020805460ff191690911790556118018061004d6000396000f3fe608060405234801561001057600080fd5b50600436106101005760003560e01c806388b8421811610097578063c76d291911610066578063c76d29191461026a578063e0574e3f1461028a578063f1470a35146102af578063f2a91b1c146102b757600080fd5b806388b84218146101e65780638da5cb5b146102065780638dd18d2d146102315780639364ace91461025757600080fd5b80634e54793e116100d35780634e54793e1461018c57806357fce4da1461019f57806374fe2126146101c05780637e081fdc146101d357600080fd5b806310addf29146101055780631b87278d1461011a578063365f5e7b1461012d5780633ed46f7a14610159575b600080fd5b61011861011336600461117f565b610340565b005b6101186101283660046111f6565b61042b565b61014061013b36600461120f565b6104a9565b6040516101509493929190611277565b60405180910390f35b61017c6101673660046112cb565b60056020526000908152604090205460ff1681565b6040519015158152602001610150565b61011861019a3660046112ed565b610585565b6101b26101ad366004611329565b610633565b604051908152602001610150565b6101b26101ce366004611365565b6107ee565b6101186101e13660046113d2565b610952565b6101f96101f43660046111f6565b610af2565b6040516101509190611419565b600154610219906001600160a01b031681565b6040516001600160a01b039091168152602001610150565b61024461023f3660046111f6565b610c20565b60405161015097969594939291906114b0565b6101b261026536600461155b565b610def565b61027d6102783660046112cb565b610e20565b6040516101509190611585565b61029d6102983660046111f6565b610e8c565b604051610150969594939291906115c9565b6000546101b2565b6103086102c53660046111f6565b600090815260026020819052604090912080546005820154928201546004909201546001600160a01b0390911680151594600160a01b90940460ff169390929190565b60408051951515865293151560208601526001600160a01b03909216928401929092526060830191909152608082015260a001610150565b60008481526002602052604090205484906001600160a01b031633146103a45760405162461bcd60e51b81526020600482015260146024820152732737ba1031b932b232b73a34b0b61037bbb732b960611b60448201526064015b60405180910390fd5b6000858152600260205260409020600181016103c0868261169d565b506002810184905582516103dd9060038301906020860190610f64565b50428160040181905550857fea132aab03a04df3e1540dd6f39863f7ba5f8a4bd27e1ffa772c34c9ca537efb86864260405161041b9392919061175d565b60405180910390a2505050505050565b60008181526002602052604090205481906001600160a01b0316331461048a5760405162461bcd60e51b81526020600482015260146024820152732737ba1031b932b232b73a34b0b61037bbb732b960611b604482015260640161039b565b506000908152600260205260409020600501805460ff60a01b19169055565b600460205281600052604060002081815481106104c557600080fd5b60009182526020909120600490910201805460018201546002830180546001600160a01b039093169550909350906104fc90611614565b80601f016020809104026020016040519081016040528092919081815260200182805461052890611614565b80156105755780601f1061054a57610100808354040283529160200191610575565b820191906000526020600020905b81548152906001019060200180831161055857829003601f168201915b5050505050908060030154905084565b6001546001600160a01b031633146105d45760405162461bcd60e51b81526020600482015260126024820152712737ba1031b7b73a3930b1ba1037bbb732b960711b604482015260640161039b565b6001600160a01b038216600081815260056020908152604091829020805460ff191685151590811790915591519182527fed05aca62923ed34025c2a56b718b52daa6c3227a2b24a73b53759a8e55a2e96910160405180910390a25050565b3360009081526005602052604081205460ff1661068a5760405162461bcd60e51b81526020600482015260156024820152742737ba1030903b32b934b334b2b21034b9b9bab2b960591b604482015260640161039b565b60008054908061069983611782565b9091555050600080546040805160e0810182526001600160a01b03898116825260208083018a81528385018a9052606084018990524260808501523360a0850152600160c08501819052868852600290925293909520825181546001600160a01b031916921691909117815591519293909290820190610719908261169d565b50604082015160028201556060820151805161073f916003840191602090910190610f64565b506080820151600482015560a08201516005909101805460c0909301511515600160a01b026001600160a81b03199093166001600160a01b03928316179290921790915586166000818152600360209081526040808320805460018101825590845291909220018390555182907fc0cea7170e00512cf36fd7e19649f3819d913728a4cd23eff7f849e8bf5c260d906107dd9089908990429061175d565b60405180910390a395945050505050565b6000805481806107fd83611782565b9091555050600080546040805160e0810182523380825260208083018a81528385018a90526060840189905242608085015260a0840192909252600160c08401819052858752600290915292909420815181546001600160a01b0319166001600160a01b03909116178155935192939092909182019061087d908261169d565b5060408201516002820155606082015180516108a3916003840191602090910190610f64565b506080820151600482015560a08201516005909101805460c0909301511515600160a01b026001600160a81b03199093166001600160a01b0390921691909117919091179055336000818152600360209081526040808320805460018101825590845291909220018390555182907fc0cea7170e00512cf36fd7e19649f3819d913728a4cd23eff7f849e8bf5c260d906109429089908990429061175d565b60405180910390a3949350505050565b600082815260026020526040902060050154600160a01b900460ff166109b25760405162461bcd60e51b815260206004820152601560248201527443726564656e7469616c206e6f742061637469766560581b604482015260640161039b565b600082815260026020526040902054336001600160a01b0390911603610a1a5760405162461bcd60e51b815260206004820152601d60248201527f43616e6e6f7420656e646f727365206f776e2063726564656e7469616c000000604482015260640161039b565b604080516080810182523381526020808201858152828401858152426060850152600087815260048085529581208054600180820183559183529490912085519490960290950180546001600160a01b0319166001600160a01b039094169390931783559051938201939093559151909182916002820190610a9c908261169d565b50606082015181600301555050336001600160a01b0316837fb75c845248a655e830f0c4ce21a23b10e00ef2af55b3b46f1ee7e21ecbb5e6388442604051610ae59291906117a9565b60405180910390a3505050565b606060046000838152602001908152602001600020805480602002602001604051908101604052809291908181526020016000905b82821015610c15576000848152602090819020604080516080810182526004860290920180546001600160a01b0316835260018101549383019390935260028301805492939291840191610b7a90611614565b80601f0160208091040260200160405190810160405280929190818152602001828054610ba690611614565b8015610bf35780601f10610bc857610100808354040283529160200191610bf3565b820191906000526020600020905b815481529060010190602001808311610bd657829003601f168201915b5050505050815260200160038201548152505081526020019060010190610b27565b505050509050919050565b60008181526002602081905260408220805491810154600482015460058301546001840180546060968896889688968796879693956001600160a01b039586169560038801939290811691600160a01b90910460ff16908690610c8290611614565b80601f0160208091040260200160405190810160405280929190818152602001828054610cae90611614565b8015610cfb5780601f10610cd057610100808354040283529160200191610cfb565b820191906000526020600020905b815481529060010190602001808311610cde57829003601f168201915b5050505050955083805480602002602001604051908101604052809291908181526020016000905b82821015610dcf578382906000526020600020018054610d4290611614565b80601f0160208091040260200160405190810160405280929190818152602001828054610d6e90611614565b8015610dbb5780601f10610d9057610100808354040283529160200191610dbb565b820191906000526020600020905b815481529060010190602001808311610d9e57829003601f168201915b505050505081526020019060010190610d23565b505050509350975097509750975097509750975050919395979092949650565b60036020528160005260406000208181548110610e0b57600080fd5b90600052602060002001600091509150505481565b6001600160a01b038116600090815260036020908152604091829020805483518184028101840190945280845260609392830182828015610e8057602002820191906000526020600020905b815481526020019060010190808311610e6c575b50505050509050919050565b600260205260009081526040902080546001820180546001600160a01b039092169291610eb890611614565b80601f0160208091040260200160405190810160405280929190818152602001828054610ee490611614565b8015610f315780601f10610f0657610100808354040283529160200191610f31565b820191906000526020600020905b815481529060010190602001808311610f1457829003601f168201915b5050505060028301546004840154600590940154929390929091506001600160a01b03811690600160a01b900460ff1686565b828054828255906000526020600020908101928215610faa579160200282015b82811115610faa5782518290610f9a908261169d565b5091602001919060010190610f84565b50610fb6929150610fba565b5090565b80821115610fb6576000610fce8282610fd7565b50600101610fba565b508054610fe390611614565b6000825580601f10610ff3575050565b601f0160209004906000526020600020908101906110119190611014565b50565b5b80821115610fb65760008155600101611015565b634e487b7160e01b600052604160045260246000fd5b604051601f8201601f1916810167ffffffffffffffff8111828210171561106857611068611029565b604052919050565b600082601f83011261108157600080fd5b813567ffffffffffffffff81111561109b5761109b611029565b6110ae601f8201601f191660200161103f565b8181528460208386010111156110c357600080fd5b816020850160208301376000918101602001919091529392505050565b600082601f8301126110f157600080fd5b8135602067ffffffffffffffff8083111561110e5761110e611029565b8260051b61111d83820161103f565b938452858101830193838101908886111561113757600080fd5b84880192505b85831015611173578235848111156111555760008081fd5b6111638a87838c0101611070565b835250918401919084019061113d565b98975050505050505050565b6000806000806080858703121561119557600080fd5b84359350602085013567ffffffffffffffff808211156111b457600080fd5b6111c088838901611070565b94506040870135935060608701359150808211156111dd57600080fd5b506111ea878288016110e0565b91505092959194509250565b60006020828403121561120857600080fd5b5035919050565b6000806040838503121561122257600080fd5b50508035926020909101359150565b6000815180845260005b818110156112575760208185018101518683018201520161123b565b506000602082860101526020601f19601f83011685010191505092915050565b60018060a01b038516815283602082015260806040820152600061129e6080830185611231565b905082606083015295945050505050565b80356001600160a01b03811681146112c657600080fd5b919050565b6000602082840312156112dd57600080fd5b6112e6826112af565b9392505050565b6000806040838503121561130057600080fd5b611309836112af565b91506020830135801515811461131e57600080fd5b809150509250929050565b6000806000806080858703121561133f57600080fd5b611348856112af565b9350602085013567ffffffffffffffff808211156111b457600080fd5b60008060006060848603121561137a57600080fd5b833567ffffffffffffffff8082111561139257600080fd5b61139e87838801611070565b94506020860135935060408601359150808211156113bb57600080fd5b506113c8868287016110e0565b9150509250925092565b600080604083850312156113e557600080fd5b82359150602083013567ffffffffffffffff81111561140357600080fd5b61140f85828601611070565b9150509250929050565b60006020808301818452808551808352604092508286019150828160051b87010184880160005b838110156114a257888303603f19018552815180516001600160a01b0316845287810151888501528681015160808886018190529061148182870182611231565b60609384015196909301959095525094870194925090860190600101611440565b509098975050505050505050565b6001600160a01b038816815260e060208083018290526000916114d59084018a611231565b88604085015283810360608501528088518083528383019150838160051b840101848b0160005b8381101561152a57601f19868403018552611518838351611231565b948701949250908601906001016114fc565b5050608087018a90526001600160a01b03891660a0880152945061154e9350505050565b82151560c0830152611173565b6000806040838503121561156e57600080fd5b611577836112af565b946020939093013593505050565b6020808252825182820181905260009190848201906040850190845b818110156115bd578351835292840192918401916001016115a1565b50909695505050505050565b600060018060a01b03808916835260c060208401526115eb60c0840189611231565b604084019790975260608301959095525091909216608082015290151560a09091015292915050565b600181811c9082168061162857607f821691505b60208210810361164857634e487b7160e01b600052602260045260246000fd5b50919050565b601f82111561169857600081815260208120601f850160051c810160208610156116755750805b601f850160051c820191505b8181101561169457828155600101611681565b5050505b505050565b815167ffffffffffffffff8111156116b7576116b7611029565b6116cb816116c58454611614565b8461164e565b602080601f83116001811461170057600084156116e85750858301515b600019600386901b1c1916600185901b178555611694565b600085815260208120601f198616915b8281101561172f57888601518255948401946001909101908401611710565b508582101561174d5787850151600019600388901b60f8161c191681555b5050505050600190811b01905550565b6060815260006117706060830186611231565b60208301949094525060400152919050565b6000600182016117a257634e487b7160e01b600052601160045260246000fd5b5060010190565b6040815260006117bc6040830185611231565b9050826020830152939250505056fea2646970667358221220459c5de4000452ee1675913e579bbc0bebc3f264626ea10432e06cc2b8d7d9e064736f6c63430008140033",
  "linkReferences": {},
  "deployedLinkReferences": {}
}